:03000000020030CB
:03000B000201608F
:100030007580FFD29574381150115B740E115011F8
:100040005B74011150115B74801150115B020060F0
:10005000F5A0C2B1C2B0D2B2115B227BFFDBFE229F
:10006000742011C5115B745411C5115B744511C521
:10007000115B744D11C5115B745011C5115B742E69
:1000800011C5115B742011C5115B745211C5115B50
:10009000744511C5115B744711C5115B745511C5C9
:1000A000115B744C11C5115B744111C5115B745423
:1000B00011C5115B744F11C5115B745211C5115BF1
:1000C00011D20200E1D2B1C2B0D2B2F5A0115BC22E
:1000D000B2227BFF7DFF75752FD575FDDDF8DBF452
:1000E00022D2B5D2B3C2B4D2B420B5FDC2B374C16A
:1000F0001150115B75890A75A882A980E9FC310C41
:10010000EC12013A12014F11D2020030C3B92300A0
:10011000500BC3B91900500AC28C020124313002BD
:1001200001243126C322C28C7AAA758C22D28C2259
:10013000C28C7AAA758CFED28C2275F00A84AFF03C
:1001400075F00A84AEF0EE2430FEEF2430FF22EE8C
:0701500011C5115BEF11C5A1
:10015700115B744311C5115B22B295C28C8A76D5A7
:0701670076FDD28CB2953247
:00000001FF
